{
  "address": "0x340aC618D28397c40FE8FEA9E7Be4d1CA00f6245",
  "abi": [
    {
      "anonymous": false,
      "inputs": [
        {
          "indexed": false,
          "internalType": "address",
          "name": "from",
          "type": "address"
        },
        {
          "indexed": false,
          "internalType": "uint256",
          "name": "value",
          "type": "uint256"
        }
      ],
      "name": "KycPurchased",
      "type": "event"
    },
    {
      "anonymous": false,
      "inputs": [
        {
          "indexed": true,
          "internalType": "address",
          "name": "previousOwner",
          "type": "address"
        },
        {
          "indexed": true,
          "internalType": "address",
          "name": "newOwner",
          "type": "address"
        }
      ],
      "name": "OwnershipTransferred",
      "type": "event"
    },
    {
      "inputs": [],
      "name": "buyKyc",
      "outputs": [],
      "stateMutability": "payable",
      "type": "function"
    },
    {
      "inputs": [
        {
          "internalType": "address",
          "name": "_addr",
          "type": "address"
        }
      ],
      "name": "kycCompleted",
      "outputs": [
        {
          "internalType": "bool",
          "name": "",
          "type": "bool"
        }
      ],
      "stateMutability": "view",
      "type": "function"
    },
    {
      "inputs": [],
      "name": "kycPrice",
      "outputs": [
        {
          "internalType": "uint256",
          "name": "",
          "type": "uint256"
        }
      ],
      "stateMutability": "view",
      "type": "function"
    },
    {
      "inputs": [],
      "name": "owner",
      "outputs": [
        {
          "internalType": "address",
          "name": "",
          "type": "address"
        }
      ],
      "stateMutability": "view",
      "type": "function"
    },
    {
      "inputs": [],
      "name": "renounceOwnership",
      "outputs": [],
      "stateMutability": "nonpayable",
      "type": "function"
    },
    {
      "inputs": [
        {
          "internalType": "address",
          "name": "_addr",
          "type": "address"
        }
      ],
      "name": "setKycCompleted",
      "outputs": [],
      "stateMutability": "nonpayable",
      "type": "function"
    },
    {
      "inputs": [
        {
          "internalType": "uint256",
          "name": "_amountInWei",
          "type": "uint256"
        }
      ],
      "name": "setKycPrice",
      "outputs": [],
      "stateMutability": "nonpayable",
      "type": "function"
    },
    {
      "inputs": [
        {
          "internalType": "address",
          "name": "_addr",
          "type": "address"
        }
      ],
      "name": "setKycRevoked",
      "outputs": [],
      "stateMutability": "nonpayable",
      "type": "function"
    },
    {
      "inputs": [
        {
          "internalType": "address",
          "name": "newOwner",
          "type": "address"
        }
      ],
      "name": "transferOwnership",
      "outputs": [],
      "stateMutability": "nonpayable",
      "type": "function"
    },
    {
      "inputs": [],
      "name": "withdrawKyc",
      "outputs": [],
      "stateMutability": "nonpayable",
      "type": "function"
    }
  ],
  "transactionHash": "0x14099508786ba399a945aeee8272241a17f17edff390730983be0a285311aa18",
  "args": [],
  "solcInputHash": "142aca3512886a59cdfc07049e781701",
  "bytecode": "0x6080604052600a60025534801561001557600080fd5b5060006100266100c960201b60201c565b9050806000806101000a81548173ffffffffffffffffffffffffffffffffffffffff021916908373ffffffffffffffffffffffffffffffffffffffff1602179055508073ffffffffffffffffffffffffffffffffffffffff16600073ffffffffffffffffffffffffffffffffffffffff167f8be0079c531659141344cd1fd0a4f28419497f9722a3daafe3b4186f6b6457e060405160405180910390a3506100d1565b600033905090565b610ee8806100e06000396000f3fe6080604052600436106100915760003560e01c8063c3dc6f3711610059578063c3dc6f3714610155578063dc3958cc1461016c578063df235fe414610195578063f2ca3013146101d2578063f2fde38b146101dc57610091565b80631289cea0146100965780634f50b79d146100bf57806370c9aedd146100ea578063715018a6146101135780638da5cb5b1461012a575b600080fd5b3480156100a257600080fd5b506100bd60048036038101906100b89190610ae5565b610205565b005b3480156100cb57600080fd5b506100d46102ce565b6040516100e19190610dfe565b60405180910390f35b3480156100f657600080fd5b50610111600480360381019061010c9190610abc565b6102d4565b005b34801561011f57600080fd5b506101286103e4565b005b34801561013657600080fd5b5061013f61051e565b60405161014c9190610cd6565b60405180910390f35b34801561016157600080fd5b5061016a610547565b005b34801561017857600080fd5b50610193600480360381019061018e9190610abc565b610655565b005b3480156101a157600080fd5b506101bc60048036038101906101b79190610abc565b61072c565b6040516101c99190610d43565b60405180910390f35b6101da610782565b005b3480156101e857600080fd5b5061020360048036038101906101fe9190610abc565b610859565b005b61020d6108e1565b73ffffffffffffffffffffffffffffffffffffffff1661022b61051e565b73ffffffffffffffffffffffffffffffffffffffff1614610281576040517f08c379a000000000000000000000000000000000000000000000000000000000815260040161027890610d7e565b60405180910390fd5b600081116102c4576040517f08c379a00000000000000000000000000000000000000000000000000000000081526004016102bb90610d9e565b60405180910390fd5b8060028190555050565b60025481565b6102dc6108e1565b73ffffffffffffffffffffffffffffffffffffffff166102fa61051e565b73ffffffffffffffffffffffffffffffffffffffff1614610350576040517f08c379a000000000000000000000000000000000000000000000000000000000815260040161034790610d7e565b60405180910390fd5b60018060008373ffffffffffffffffffffffffffffffffffffffff1673ffffffffffffffffffffffffffffffffffffffff16815260200190815260200160002060006101000a81548160ff0219169083151502179055507f967489f2d72885d325edf0cf0d77e9deb9d88404866e7943bfb38cca6ee741948160006040516103d9929190610cf1565b60405180910390a150565b6103ec6108e1565b73ffffffffffffffffffffffffffffffffffffffff1661040a61051e565b73ffffffffffffffffffffffffffffffffffffffff1614610460576040517f08c379a000000000000000000000000000000000000000000000000000000000815260040161045790610d7e565b60405180910390fd5b600073ffffffffffffffffffffffffffffffffffffffff1660008054906101000a900473ffffffffffffffffffffffffffffffffffffffff1673ffffffffffffffffffffffffffffffffffffffff167f8be0079c531659141344cd1fd0a4f28419497f9722a3daafe3b4186f6b6457e060405160405180910390a360008060006101000a81548173ffffffffffffffffffffffffffffffffffffffff021916908373ffffffffffffffffffffffffffffffffffffffff160217905550565b60008060009054906101000a900473ffffffffffffffffffffffffffffffffffffffff16905090565b61054f6108e1565b73ffffffffffffffffffffffffffffffffffffffff1661056d61051e565b73ffffffffffffffffffffffffffffffffffffffff16146105c3576040517f08c379a00000000000000000000000000000000000000000000000000000000081526004016105ba90610d7e565b60405180910390fd5b60004790506000811161060b576040517f08c379a000000000000000000000000000000000000000000000000000000000815260040161060290610dde565b60405180910390fd5b3373ffffffffffffffffffffffffffffffffffffffff166108fc829081150290604051600060405180830381858888f19350505050158015610651573d6000803e3d6000fd5b5050565b61065d6108e1565b73ffffffffffffffffffffffffffffffffffffffff1661067b61051e565b73ffffffffffffffffffffffffffffffffffffffff16146106d1576040517f08c379a00000000000000000000000000000000000000000000000000000000081526004016106c890610d7e565b60405180910390fd5b6000600160008373ffffffffffffffffffffffffffffffffffffffff1673ffffffffffffffffffffffffffffffffffffffff16815260200190815260200160002060006101000a81548160ff02191690831515021790555050565b6000600160008373ffffffffffffffffffffffffffffffffffffffff1673ffffffffffffffffffffffffffffffffffffffff16815260200190815260200160002060009054906101000a900460ff169050919050565b6002543410156107c7576040517f08c379a00000000000000000000000000000000000000000000000000000000081526004016107be90610dbe565b60405180910390fd5b60018060003373ffffffffffffffffffffffffffffffffffffffff1673ffffffffffffffffffffffffffffffffffffffff16815260200190815260200160002060006101000a81548160ff0219169083151502179055507f967489f2d72885d325edf0cf0d77e9deb9d88404866e7943bfb38cca6ee74194333460405161084f929190610d1a565b60405180910390a1565b6108616108e1565b73ffffffffffffffffffffffffffffffffffffffff1661087f61051e565b73ffffffffffffffffffffffffffffffffffffffff16146108d5576040517f08c379a00000000000000000000000000000000000000000000000000000000081526004016108cc90610d7e565b60405180910390fd5b6108de816108e9565b50565b600033905090565b6108f16108e1565b73ffffffffffffffffffffffffffffffffffffffff1661090f61051e565b73ffffffffffffffffffffffffffffffffffffffff1614610965576040517f08c379a000000000000000000000000000000000000000000000000000000000815260040161095c90610d7e565b60405180910390fd5b600073ffffffffffffffffffffffffffffffffffffffff168173ffffffffffffffffffffffffffffffffffffffff1614156109d5576040517f08c379a00000000000000000000000000000000000000000000000000000000081526004016109cc90610d5e565b60405180910390fd5b8073ffffffffffffffffffffffffffffffffffffffff1660008054906101000a900473ffffffffffffffffffffffffffffffffffffffff1673ffffffffffffffffffffffffffffffffffffffff167f8be0079c531659141344cd1fd0a4f28419497f9722a3daafe3b4186f6b6457e060405160405180910390a3806000806101000a81548173ffffffffffffffffffffffffffffffffffffffff021916908373ffffffffffffffffffffffffffffffffffffffff16021790555050565b600081359050610aa181610e84565b92915050565b600081359050610ab681610e9b565b92915050565b600060208284031215610ace57600080fd5b6000610adc84828501610a92565b91505092915050565b600060208284031215610af757600080fd5b6000610b0584828501610aa7565b91505092915050565b610b1781610e2a565b82525050565b610b2681610e3c565b82525050565b610b3581610e72565b82525050565b6000610b48602683610e19565b91507f4f776e61626c653a206e6577206f776e657220697320746865207a65726f206160008301527f64647265737300000000000000000000000000000000000000000000000000006020830152604082019050919050565b6000610bae602083610e19565b91507f4f776e61626c653a2063616c6c6572206973206e6f7420746865206f776e65726000830152602082019050919050565b6000610bee601f83610e19565b91507f796f752063616e6e6f742073657420746865206b796320666f722066726565006000830152602082019050919050565b6000610c2e602683610e19565b91507f596f75206e65656420746f2073656e64206d6f7265206d6f6e657920746f206260008301527f7579206b796300000000000000000000000000000000000000000000000000006020830152604082019050919050565b6000610c94601683610e19565b91507f6e6f7468696e6720746f2077697468647261772e2e2e000000000000000000006000830152602082019050919050565b610cd081610e68565b82525050565b6000602082019050610ceb6000830184610b0e565b92915050565b6000604082019050610d066000830185610b0e565b610d136020830184610b2c565b9392505050565b6000604082019050610d2f6000830185610b0e565b610d3c6020830184610cc7565b9392505050565b6000602082019050610d586000830184610b1d565b92915050565b60006020820190508181036000830152610d7781610b3b565b9050919050565b60006020820190508181036000830152610d9781610ba1565b9050919050565b60006020820190508181036000830152610db781610be1565b9050919050565b60006020820190508181036000830152610dd781610c21565b9050919050565b60006020820190508181036000830152610df781610c87565b9050919050565b6000602082019050610e136000830184610cc7565b92915050565b600082825260208201905092915050565b6000610e3582610e48565b9050919050565b60008115159050919050565b600073ffffffffffffffffffffffffffffffffffffffff82169050919050565b6000819050919050565b6000610e7d82610e68565b9050919050565b610e8d81610e2a565b8114610e9857600080fd5b50565b610ea481610e68565b8114610eaf57600080fd5b5056fea2646970667358221220d9b89c01ab4bed427f02eccafa81adb4d1cdbb6f207a87c1c9372a3a10266cc264736f6c63430008000033",
  "devdoc": {
    "kind": "dev",
    "methods": {
      "owner()": {
        "details": "Returns the address of the current owner."
      },
      "renounceOwnership()": {
        "details": "Leaves the contract without owner. It will not be possible to call `onlyOwner` functions anymore. Can only be called by the current owner. NOTE: Renouncing ownership will leave the contract without an owner, thereby removing any functionality that is only available to the owner."
      },
      "transferOwnership(address)": {
        "details": "Transfers ownership of the contract to a new account (`newOwner`). Can only be called by the current owner."
      }
    },
    "version": 1
  },
  "userdoc": {
    "kind": "user",
    "methods": {},
    "version": 1
  },
  "storageLayout": {
    "storage": [
      {
        "astId": 7,
        "contract": "contracts/KycContract.sol:KycContract",
        "label": "_owner",
        "offset": 0,
        "slot": "0",
        "type": "t_address"
      },
      {
        "astId": 1994,
        "contract": "contracts/KycContract.sol:KycContract",
        "label": "allowed",
        "offset": 0,
        "slot": "1",
        "type": "t_mapping(t_address,t_bool)"
      },
      {
        "astId": 1997,
        "contract": "contracts/KycContract.sol:KycContract",
        "label": "kycPrice",
        "offset": 0,
        "slot": "2",
        "type": "t_uint256"
      }
    ],
    "types": {
      "t_address": {
        "encoding": "inplace",
        "label": "address",
        "numberOfBytes": "20"
      },
      "t_bool": {
        "encoding": "inplace",
        "label": "bool",
        "numberOfBytes": "1"
      },
      "t_mapping(t_address,t_bool)": {
        "encoding": "mapping",
        "key": "t_address",
        "label": "mapping(address => bool)",
        "numberOfBytes": "32",
        "value": "t_bool"
      },
      "t_uint256": {
        "encoding": "inplace",
        "label": "uint256",
        "numberOfBytes": "32"
      }
    }
  }
}