{
  "address": "0xfa98F0Dd0d69a1097a6Fb6bC1217f2E1e59FC2BA",
  "abi": [
    {
      "anonymous": false,
      "inputs": [
        {
          "indexed": false,
          "internalType": "address",
          "name": "_userAddress",
          "type": "address"
        },
        {
          "indexed": false,
          "internalType": "address",
          "name": "_tokenAddress",
          "type": "address"
        }
      ],
      "name": "createTokenEvent",
      "type": "event"
    },
    {
      "inputs": [
        {
          "internalType": "string",
          "name": "_name",
          "type": "string"
        },
        {
          "internalType": "string",
          "name": "_symbol",
          "type": "string"
        },
        {
          "internalType": "uint8",
          "name": "_decimals",
          "type": "uint8"
        },
        {
          "internalType": "uint256",
          "name": "_tokenRateSale",
          "type": "uint256"
        },
        {
          "internalType": "uint256",
          "name": "_kycPrice",
          "type": "uint256"
        }
      ],
      "name": "createToken",
      "outputs": [],
      "stateMutability": "nonpayable",
      "type": "function"
    },
    {
      "inputs": [
        {
          "internalType": "address",
          "name": "",
          "type": "address"
        }
      ],
      "name": "kycContractAddress",
      "outputs": [
        {
          "internalType": "address",
          "name": "",
          "type": "address"
        }
      ],
      "stateMutability": "view",
      "type": "function"
    },
    {
      "inputs": [
        {
          "internalType": "address",
          "name": "",
          "type": "address"
        }
      ],
      "name": "myTokenSaleAddress",
      "outputs": [
        {
          "internalType": "address",
          "name": "",
          "type": "address"
        }
      ],
      "stateMutability": "view",
      "type": "function"
    },
    {
      "inputs": [
        {
          "internalType": "address",
          "name": "",
          "type": "address"
        },
        {
          "internalType": "uint256",
          "name": "",
          "type": "uint256"
        }
      ],
      "name": "userTokenAddress",
      "outputs": [
        {
          "internalType": "address",
          "name": "",
          "type": "address"
        }
      ],
      "stateMutability": "view",
      "type": "function"
    },
    {
      "inputs": [
        {
          "internalType": "address",
          "name": "",
          "type": "address"
        }
      ],
      "name": "userTokensCount",
      "outputs": [
        {
          "internalType": "uint256",
          "name": "",
          "type": "uint256"
        }
      ],
      "stateMutability": "view",
      "type": "function"
    }
  ],
  "transactionHash": "0x3666d3c04292565de20d109b668502364d4338611cc1ab8fbe13659a095a3b73",
  "args": [],
  "solcInputHash": "b6ed199f79ecbce34e6aff27c77ff1fc",
  "bytecode": "0x608060405234801561001057600080fd5b50615c17806100206000396000f3fe60806040523480156200001157600080fd5b50600436106200005e5760003560e01c80631ae5be6f1462000063578063a7a417a31462000083578063ac3a6ed714620000b9578063bfea30cc14620000ef578063db4cb6ba1462000125575b600080fd5b6200008160048036038101906200007b91906200088c565b6200015b565b005b620000a160048036038101906200009b91906200084b565b62000671565b604051620000b09190620009e7565b60405180910390f35b620000d76004803603810190620000d191906200081f565b620006c0565b604051620000e6919062000a7c565b60405180910390f35b6200010d60048036038101906200010791906200081f565b620006d8565b6040516200011c9190620009e7565b60405180910390f35b6200014360048036038101906200013d91906200081f565b6200070b565b604051620001529190620009e7565b60405180910390f35b60008585856040516200016e906200073e565b6200017c9392919062000a31565b604051809103906000f08015801562000199573d6000803e3d6000fd5b5090506000604051620001ac906200074c565b604051809103906000f080158015620001c9573d6000803e3d6000fd5b509050600084338484604051620001e0906200075a565b620001ef949392919062000a99565b604051809103906000f0801580156200020c573d6000803e3d6000fd5b5090508273ffffffffffffffffffffffffffffffffffffffff1663983b2d56826040518263ffffffff1660e01b81526004016200024a9190620009e7565b600060405180830381600087803b1580156200026557600080fd5b505af11580156200027a573d6000803e3d6000fd5b505050508273ffffffffffffffffffffffffffffffffffffffff1663983b2d56336040518263ffffffff1660e01b8152600401620002b99190620009e7565b600060405180830381600087803b158015620002d457600080fd5b505af1158015620002e9573d6000803e3d6000fd5b505050508173ffffffffffffffffffffffffffffffffffffffff16631289cea0856040518263ffffffff1660e01b815260040162000328919062000a7c565b600060405180830381600087803b1580156200034357600080fd5b505af115801562000358573d6000803e3d6000fd5b505050508273ffffffffffffffffffffffffffffffffffffffff1663f2fde38b336040518263ffffffff1660e01b8152600401620003979190620009e7565b600060405180830381600087803b158015620003b257600080fd5b505af1158015620003c7573d6000803e3d6000fd5b505050508173ffffffffffffffffffffffffffffffffffffffff1663f2fde38b336040518263ffffffff1660e01b8152600401620004069190620009e7565b600060405180830381600087803b1580156200042157600080fd5b505af115801562000436573d6000803e3d6000fd5b505050506000803373ffffffffffffffffffffffffffffffffffffffff1673ffffffffffffffffffffffffffffffffffffffff168152602001908152602001600020839080600181540180825580915050600190039060005260206000200160009091909190916101000a81548173ffffffffffffffffffffffffffffffffffffffff021916908373ffffffffffffffffffffffffffffffffffffffff16021790555081600160008573ffffffffffffffffffffffffffffffffffffffff1673ffffffffffffffffffffffffffffffffffffffff16815260200190815260200160002060006101000a81548173ffffffffffffffffffffffffffffffffffffffff021916908373ffffffffffffffffffffffffffffffffffffffff16021790555080600260008573ffffffffffffffffffffffffffffffffffffffff1673ffffffffffffffffffffffffffffffffffffffff16815260200190815260200160002060006101000a81548173ffffffffffffffffffffffffffffffffffffffff021916908373ffffffffffffffffffffffffffffffffffffffff160217905550600360003373ffffffffffffffffffffffffffffffffffffffff1673ffffffffffffffffffffffffffffffffffffffff1681526020019081526020016000206000815480929190620006279062000c5d565b91905055507f5a5d2515a39b578aa1b166227dd169825b5b2b704da595bf8a6a91e545dcb7db33846040516200065f92919062000a04565b60405180910390a15050505050505050565b600060205281600052604060002081815481106200068e57600080fd5b906000526020600020016000915091509054906101000a900473ffffffffffffffffffffffffffffffffffffffff1681565b60036020528060005260406000206000915090505481565b60026020528060005260406000206000915054906101000a900473ffffffffffffffffffffffffffffffffffffffff1681565b60016020528060005260406000206000915054906101000a900473ffffffffffffffffffffffffffffffffffffffff1681565b6129098062000d6983390190565b6113a5806200367283390190565b6111cb8062004a1783390190565b60006200077f620007798462000b1a565b62000ae6565b9050828152602081018484840111156200079857600080fd5b620007a584828562000c18565b509392505050565b600081359050620007be8162000d1a565b92915050565b600082601f830112620007d657600080fd5b8135620007e884826020860162000768565b91505092915050565b600081359050620008028162000d34565b92915050565b600081359050620008198162000d4e565b92915050565b6000602082840312156200083257600080fd5b60006200084284828501620007ad565b91505092915050565b600080604083850312156200085f57600080fd5b60006200086f85828601620007ad565b92505060206200088285828601620007f1565b9150509250929050565b600080600080600060a08688031215620008a557600080fd5b600086013567ffffffffffffffff811115620008c057600080fd5b620008ce88828901620007c4565b955050602086013567ffffffffffffffff811115620008ec57600080fd5b620008fa88828901620007c4565b94505060406200090d8882890162000808565b93505060606200092088828901620007f1565b92505060806200093388828901620007f1565b9150509295509295909350565b6200094b8162000b7d565b82525050565b6200095c8162000b69565b82525050565b6200096d8162000bc8565b82525050565b6200097e8162000bf0565b82525050565b6000620009918262000b4d565b6200099d818562000b58565b9350620009af81856020860162000c27565b620009ba8162000d09565b840191505092915050565b620009d08162000bb1565b82525050565b620009e18162000bbb565b82525050565b6000602082019050620009fe600083018462000951565b92915050565b600060408201905062000a1b600083018562000951565b62000a2a602083018462000951565b9392505050565b6000606082019050818103600083015262000a4d818662000984565b9050818103602083015262000a63818562000984565b905062000a746040830184620009d6565b949350505050565b600060208201905062000a936000830184620009c5565b92915050565b600060808201905062000ab06000830187620009c5565b62000abf602083018662000940565b62000ace604083018562000973565b62000add606083018462000962565b95945050505050565b6000604051905081810181811067ffffffffffffffff8211171562000b105762000b0f62000cda565b5b8060405250919050565b600067ffffffffffffffff82111562000b385762000b3762000cda565b5b601f19601f8301169050602081019050919050565b600081519050919050565b600082825260208201905092915050565b600062000b768262000b91565b9050919050565b600062000b8a8262000b91565b9050919050565b600073ffffffffffffffffffffffffffffffffffffffff82169050919050565b6000819050919050565b600060ff82169050919050565b600062000bd58262000bdc565b9050919050565b600062000be98262000b91565b9050919050565b600062000bfd8262000c04565b9050919050565b600062000c118262000b91565b9050919050565b82818337600083830152505050565b60005b8381101562000c4757808201518184015260208101905062000c2a565b8381111562000c57576000848401525b50505050565b600062000c6a8262000bb1565b91507fffffffffffffffffffffffffffffffffffffffffffffffffffffffffffffffff82141562000ca05762000c9f62000cab565b5b600182019050919050565b7f4e487b7100000000000000000000000000000000000000000000000000000000600052601160045260246000fd5b7f4e487b7100000000000000000000000000000000000000000000000000000000600052604160045260246000fd5b6000601f19601f8301169050919050565b62000d258162000b69565b811462000d3157600080fd5b50565b62000d3f8162000bb1565b811462000d4b57600080fd5b50565b62000d598162000bbb565b811462000d6557600080fd5b5056fe60806040523480156200001157600080fd5b506040516200290938038062002909833981810160405281019062000037919062000482565b828281600390805190602001906200005192919062000349565b5080600490805190602001906200006a92919062000349565b5050506200008d620000816200016260201b60201c565b6200016a60201b60201c565b60006200009f6200016260201b60201c565b905080600660006101000a81548173ffffffffffffffffffffffffffffffffffffffff021916908373ffffffffffffffffffffffffffffffffffffffff1602179055508073ffffffffffffffffffffffffffffffffffffffff16600073ffffffffffffffffffffffffffffffffffffffff167f8be0079c531659141344cd1fd0a4f28419497f9722a3daafe3b4186f6b6457e060405160405180910390a35080600660146101000a81548160ff021916908360ff16021790555050505062000761565b600033905090565b62000185816005620001cb60201b62000bb61790919060201c565b8073ffffffffffffffffffffffffffffffffffffffff167f6ae172837ea30b801fbfcdd4108aa1d5bf8ff775444fd70256b44e6bf3dfc3f660405160405180910390a250565b620001dd82826200027e60201b60201c565b1562000220576040517f08c379a00000000000000000000000000000000000000000000000000000000081526004016200021790620005b4565b60405180910390fd5b60018260000160008373ffffffffffffffffffffffffffffffffffffffff1673ffffffffffffffffffffffffffffffffffffffff16815260200190815260200160002060006101000a81548160ff0219169083151502179055505050565b60008073ffffffffffffffffffffffffffffffffffffffff168273ffffffffffffffffffffffffffffffffffffffff161415620002f2576040517f08c379a0000000000000000000000000000000000000000000000000000000008152600401620002e990620005d6565b60405180910390fd5b8260000160008373ffffffffffffffffffffffffffffffffffffffff1673ffffffffffffffffffffffffffffffffffffffff16815260200190815260200160002060009054906101000a900460ff16905092915050565b8280546200035790620006b3565b90600052602060002090601f0160209004810192826200037b5760008555620003c7565b82601f106200039657805160ff1916838001178555620003c7565b82800160010185558215620003c7579182015b82811115620003c6578251825591602001919060010190620003a9565b5b509050620003d69190620003da565b5090565b5b80821115620003f5576000816000905550600101620003db565b5090565b6000620004106200040a846200062c565b620005f8565b9050828152602081018484840111156200042957600080fd5b620004368482856200067d565b509392505050565b600082601f8301126200045057600080fd5b815162000462848260208601620003f9565b91505092915050565b6000815190506200047c8162000747565b92915050565b6000806000606084860312156200049857600080fd5b600084015167ffffffffffffffff811115620004b357600080fd5b620004c1868287016200043e565b935050602084015167ffffffffffffffff811115620004df57600080fd5b620004ed868287016200043e565b925050604062000500868287016200046b565b9150509250925092565b600062000519601f836200065f565b91507f526f6c65733a206163636f756e7420616c72656164792068617320726f6c65006000830152602082019050919050565b60006200055b6022836200065f565b91507f526f6c65733a206163636f756e7420697320746865207a65726f20616464726560008301527f73730000000000000000000000000000000000000000000000000000000000006020830152604082019050919050565b60006020820190508181036000830152620005cf816200050a565b9050919050565b60006020820190508181036000830152620005f1816200054c565b9050919050565b6000604051905081810181811067ffffffffffffffff8211171562000622576200062162000718565b5b8060405250919050565b600067ffffffffffffffff8211156200064a576200064962000718565b5b601f19601f8301169050602081019050919050565b600082825260208201905092915050565b600060ff82169050919050565b60005b838110156200069d57808201518184015260208101905062000680565b83811115620006ad576000848401525b50505050565b60006002820490506001821680620006cc57607f821691505b60208210811415620006e357620006e2620006e9565b5b50919050565b7f4e487b7100000000000000000000000000000000000000000000000000000000600052602260045260246000fd5b7f4e487b7100000000000000000000000000000000000000000000000000000000600052604160045260246000fd5b620007528162000670565b81146200075e57600080fd5b50565b61219880620007716000396000f3fe608060405234801561001057600080fd5b50600436106101165760003560e01c80638da5cb5b116100a2578063a457c2d711610071578063a457c2d7146102d1578063a9059cbb14610301578063aa271e1a14610331578063dd62ed3e14610361578063f2fde38b1461039157610116565b80638da5cb5b1461026f57806395d89b411461028d578063983b2d56146102ab57806398650275146102c757610116565b8063313ce567116100e9578063313ce567146101b757806339509351146101d557806340c10f191461020557806370a0823114610235578063715018a61461026557610116565b806306fdde031461011b578063095ea7b31461013957806318160ddd1461016957806323b872dd14610187575b600080fd5b6101236103ad565b6040516101309190611d4d565b60405180910390f35b610153600480360381019061014e919061171b565b61043f565b6040516101609190611d32565b60405180910390f35b61017161045d565b60405161017e9190611f2f565b60405180910390f35b6101a1600480360381019061019c91906116cc565b610467565b6040516101ae9190611d32565b60405180910390f35b6101bf610568565b6040516101cc9190611f4a565b60405180910390f35b6101ef60048036038101906101ea919061171b565b61057f565b6040516101fc9190611d32565b60405180910390f35b61021f600480360381019061021a919061171b565b61062b565b60405161022c9190611d32565b60405180910390f35b61024f600480360381019061024a9190611667565b6106ca565b60405161025c9190611f2f565b60405180910390f35b61026d610712565b005b61027761084f565b6040516102849190611cee565b60405180910390f35b610295610879565b6040516102a29190611d4d565b60405180910390f35b6102c560048036038101906102c09190611667565b61090b565b005b6102cf610966565b005b6102eb60048036038101906102e6919061171b565b610978565b6040516102f89190611d32565b60405180910390f35b61031b6004803603810190610316919061171b565b610a6c565b6040516103289190611d32565b60405180910390f35b61034b60048036038101906103469190611667565b610a8a565b6040516103589190611d32565b60405180910390f35b61037b60048036038101906103769190611690565b610aa7565b6040516103889190611f2f565b60405180910390f35b6103ab60048036038101906103a69190611667565b610b2e565b005b6060600380546103bc90612093565b80601f01602080910402602001604051908101604052809291908181526020018280546103e890612093565b80156104355780601f1061040a57610100808354040283529160200191610435565b820191906000526020600020905b81548152906001019060200180831161041857829003601f168201915b5050505050905090565b600061045361044c610c5e565b8484610c66565b6001905092915050565b6000600254905090565b6000610474848484610e31565b6000600160008673ffffffffffffffffffffffffffffffffffffffff1673ffffffffffffffffffffffffffffffffffffffff16815260200190815260200160002060006104bf610c5e565b73ffffffffffffffffffffffffffffffffffffffff1673ffffffffffffffffffffffffffffffffffffffff1681526020019081526020016000205490508281101561053f576040517f08c379a000000000000000000000000000000000000000000000000000000000815260040161053690611e4f565b60405180910390fd5b61055c8561054b610c5e565b85846105579190611fd7565b610c66565b60019150509392505050565b6000600660149054906101000a900460ff16905090565b600061062161058c610c5e565b84846001600061059a610c5e565b73ffffffffffffffffffffffffffffffffffffffff1673ffffffffffffffffffffffffffffffffffffffff16815260200190815260200160002060008873ffffffffffffffffffffffffffffffffffffffff1673ffffffffffffffffffffffffffffffffffffffff1681526020019081526020016000205461061c9190611f81565b610c66565b6001905092915050565b600061063d610638610c5e565b610a8a565b61067c576040517f08c379a000000000000000000000000000000000000000000000000000000000815260040161067390611e0f565b60405180910390fd5b61068683836110b0565b507f2d8eb9b9558d4b5ef1d238622692f6156d5822009340e26ab15fac05d64c12f083836040516106b8929190611d09565b60405180910390a16001905092915050565b60008060008373ffffffffffffffffffffffffffffffffffffffff1673ffffffffffffffffffffffffffffffffffffffff168152602001908152602001600020549050919050565b61071a610c5e565b73ffffffffffffffffffffffffffffffffffffffff1661073861084f565b73ffffffffffffffffffffffffffffffffffffffff161461078e576040517f08c379a000000000000000000000000000000000000000000000000000000000815260040161078590611e6f565b60405180910390fd5b600073ffffffffffffffffffffffffffffffffffffffff16600660009054906101000a900473ffffffffffffffffffffffffffffffffffffffff1673ffffffffffffffffffffffffffffffffffffffff167f8be0079c531659141344cd1fd0a4f28419497f9722a3daafe3b4186f6b6457e060405160405180910390a36000600660006101000a81548173ffffffffffffffffffffffffffffffffffffffff021916908373ffffffffffffffffffffffffffffffffffffffff160217905550565b6000600660009054906101000a900473ffffffffffffffffffffffffffffffffffffffff16905090565b60606004805461088890612093565b80601f01602080910402602001604051908101604052809291908181526020018280546108b490612093565b80156109015780601f106108d657610100808354040283529160200191610901565b820191906000526020600020905b8154815290600101906020018083116108e457829003601f168201915b5050505050905090565b61091b610916610c5e565b610a8a565b61095a576040517f08c379a000000000000000000000000000000000000000000000000000000000815260040161095190611e0f565b60405180910390fd5b61096381611115565b50565b610976610971610c5e565b61116f565b565b60008060016000610987610c5e565b73ffffffffffffffffffffffffffffffffffffffff1673ffffffffffffffffffffffffffffffffffffffff16815260200190815260200160002060008573ffffffffffffffffffffffffffffffffffffffff1673ffffffffffffffffffffffffffffffffffffffff16815260200190815260200160002054905082811015610a44576040517f08c379a0000000000000000000000000000000000000000000000000000000008152600401610a3b90611eef565b60405180910390fd5b610a61610a4f610c5e565b858584610a5c9190611fd7565b610c66565b600191505092915050565b6000610a80610a79610c5e565b8484610e31565b6001905092915050565b6000610aa08260056111c990919063ffffffff16565b9050919050565b6000600160008473ffffffffffffffffffffffffffffffffffffffff1673ffffffffffffffffffffffffffffffffffffffff16815260200190815260200160002060008373ffffffffffffffffffffffffffffffffffffffff1673ffffffffffffffffffffffffffffffffffffffff16815260200190815260200160002054905092915050565b610b36610c5e565b73ffffffffffffffffffffffffffffffffffffffff16610b5461084f565b73ffffffffffffffffffffffffffffffffffffffff1614610baa576040517f08c379a0000000000000000000000000000000000000000000000000000000008152600401610ba190611e6f565b60405180910390fd5b610bb381611291565b50565b610bc082826111c9565b15610c00576040517f08c379a0000000000000000000000000000000000000000000000000000000008152600401610bf790611d8f565b60405180910390fd5b60018260000160008373ffffffffffffffffffffffffffffffffffffffff1673ffffffffffffffffffffffffffffffffffffffff16815260200190815260200160002060006101000a81548160ff0219169083151502179055505050565b600033905090565b600073ffffffffffffffffffffffffffffffffffffffff168373ffffffffffffffffffffffffffffffffffffffff161415610cd6576040517f08c379a0000000000000000000000000000000000000000000000000000000008152600401610ccd90611ecf565b60405180910390fd5b600073ffffffffffffffffffffffffffffffffffffffff168273ffffffffffffffffffffffffffffffffffffffff161415610d46576040517f08c379a0000000000000000000000000000000000000000000000000000000008152600401610d3d90611dcf565b60405180910390fd5b80600160008573ffffffffffffffffffffffffffffffffffffffff1673ffffffffffffffffffffffffffffffffffffffff16815260200190815260200160002060008473ffffffffffffffffffffffffffffffffffffffff1673ffffffffffffffffffffffffffffffffffffffff168152602001908152602001600020819055508173ffffffffffffffffffffffffffffffffffffffff168373ffffffffffffffffffffffffffffffffffffffff167f8c5be1e5ebec7d5bd14f71427d1e84f3dd0314c0f7b2291e5b200ac8c7c3b92583604051610e249190611f2f565b60405180910390a3505050565b600073ffffffffffffffffffffffffffffffffffffffff168373ffffffffffffffffffffffffffffffffffffffff161415610ea1576040517f08c379a0000000000000000000000000000000000000000000000000000000008152600401610e9890611eaf565b60405180910390fd5b600073ffffffffffffffffffffffffffffffffffffffff168273ffffffffffffffffffffffffffffffffffffffff161415610f11576040517f08c379a0000000000000000000000000000000000000000000000000000000008152600401610f0890611d6f565b60405180910390fd5b610f1c83838361143d565b60008060008573ffffffffffffffffffffffffffffffffffffffff1673ffffffffffffffffffffffffffffffffffffffff16815260200190815260200160002054905081811015610fa2576040517f08c379a0000000000000000000000000000000000000000000000000000000008152600401610f9990611def565b60405180910390fd5b8181610fae9190611fd7565b6000808673ffffffffffffffffffffffffffffffffffffffff1673ffffffffffffffffffffffffffffffffffffffff16815260200190815260200160002081905550816000808573ffffffffffffffffffffffffffffffffffffffff1673ffffffffffffffffffffffffffffffffffffffff168152602001908152602001600020600082825461103e9190611f81565b925050819055508273ffffffffffffffffffffffffffffffffffffffff168473ffffffffffffffffffffffffffffffffffffffff167fddf252ad1be2c89b69c2b068fc378daa952ba7f163c4a11628f55a4df523b3ef846040516110a29190611f2f565b60405180910390a350505050565b60006110c26110bd610c5e565b610a8a565b611101576040517f08c379a00000000000000000000000000000000000000000000000000000000081526004016110f890611e0f565b60405180910390fd5b61110b8383611442565b6001905092915050565b611129816005610bb690919063ffffffff16565b8073ffffffffffffffffffffffffffffffffffffffff167f6ae172837ea30b801fbfcdd4108aa1d5bf8ff775444fd70256b44e6bf3dfc3f660405160405180910390a250565b61118381600561159690919063ffffffff16565b8073ffffffffffffffffffffffffffffffffffffffff167fe94479a9f7e1952cc78f2d6baab678adc1b772d936c6583def489e524cb6669260405160405180910390a250565b60008073ffffffffffffffffffffffffffffffffffffffff168273ffffffffffffffffffffffffffffffffffffffff16141561123a576040517f08c379a000000000000000000000000000000000000000000000000000000000815260040161123190611e8f565b60405180910390fd5b8260000160008373ffffffffffffffffffffffffffffffffffffffff1673ffffffffffffffffffffffffffffffffffffffff16815260200190815260200160002060009054906101000a900460ff16905092915050565b611299610c5e565b73ffffffffffffffffffffffffffffffffffffffff166112b761084f565b73ffffffffffffffffffffffffffffffffffffffff161461130d576040517f08c379a000000000000000000000000000000000000000000000000000000000815260040161130490611e6f565b60405180910390fd5b600073ffffffffffffffffffffffffffffffffffffffff168173ffffffffffffffffffffffffffffffffffffffff16141561137d576040517f08c379a000000000000000000000000000000000000000000000000000000000815260040161137490611daf565b60405180910390fd5b8073ffffffffffffffffffffffffffffffffffffffff16600660009054906101000a900473ffffffffffffffffffffffffffffffffffffffff1673ffffffffffffffffffffffffffffffffffffffff167f8be0079c531659141344cd1fd0a4f28419497f9722a3daafe3b4186f6b6457e060405160405180910390a380600660006101000a81548173ffffffffffffffffffffffffffffffffffffffff021916908373ffffffffffffffffffffffffffffffffffffffff16021790555050565b505050565b600073ffffffffffffffffffffffffffffffffffffffff168273ffffffffffffffffffffffffffffffffffffffff1614156114b2576040517f08c379a00000000000000000000000000000000000000000000000000000000081526004016114a990611f0f565b60405180910390fd5b6114be6000838361143d565b80600260008282546114d09190611f81565b92505081905550806000808473ffffffffffffffffffffffffffffffffffffffff1673ffffffffffffffffffffffffffffffffffffffff16815260200190815260200160002060008282546115259190611f81565b925050819055508173ffffffffffffffffffffffffffffffffffffffff16600073ffffffffffffffffffffffffffffffffffffffff167fddf252ad1be2c89b69c2b068fc378daa952ba7f163c4a11628f55a4df523b3ef8360405161158a9190611f2f565b60405180910390a35050565b6115a082826111c9565b6115df576040517f08c379a00000000000000000000000000000000000000000000000000000000081526004016115d690611e2f565b60405180910390fd5b60008260000160008373ffffffffffffffffffffffffffffffffffffffff1673ffffffffffffffffffffffffffffffffffffffff16815260200190815260200160002060006101000a81548160ff0219169083151502179055505050565b60008135905061164c81612134565b92915050565b6000813590506116618161214b565b92915050565b60006020828403121561167957600080fd5b60006116878482850161163d565b91505092915050565b600080604083850312156116a357600080fd5b60006116b18582860161163d565b92505060206116c28582860161163d565b9150509250929050565b6000806000606084860312156116e157600080fd5b60006116ef8682870161163d565b93505060206117008682870161163d565b925050604061171186828701611652565b9150509250925092565b6000806040838503121561172e57600080fd5b600061173c8582860161163d565b925050602061174d85828601611652565b9150509250929050565b6117608161200b565b82525050565b61176f8161201d565b82525050565b600061178082611f65565b61178a8185611f70565b935061179a818560208601612060565b6117a381612123565b840191505092915050565b60006117bb602383611f70565b91507f45524332303a207472616e7366657220746f20746865207a65726f206164647260008301527f65737300000000000000000000000000000000000000000000000000000000006020830152604082019050919050565b6000611821601f83611f70565b91507f526f6c65733a206163636f756e7420616c72656164792068617320726f6c65006000830152602082019050919050565b6000611861602683611f70565b91507f4f776e61626c653a206e6577206f776e657220697320746865207a65726f206160008301527f64647265737300000000000000000000000000000000000000000000000000006020830152604082019050919050565b60006118c7602283611f70565b91507f45524332303a20617070726f766520746f20746865207a65726f20616464726560008301527f73730000000000000000000000000000000000000000000000000000000000006020830152604082019050919050565b600061192d602683611f70565b91507f45524332303a207472616e7366657220616d6f756e742065786365656473206260008301527f616c616e636500000000000000000000000000000000000000000000000000006020830152604082019050919050565b6000611993603083611f70565b91507f4d696e746572526f6c653a2063616c6c657220646f6573206e6f74206861766560008301527f20746865204d696e74657220726f6c65000000000000000000000000000000006020830152604082019050919050565b60006119f9602183611f70565b91507f526f6c65733a206163636f756e7420646f6573206e6f74206861766520726f6c60008301527f65000000000000000000000000000000000000000000000000000000000000006020830152604082019050919050565b6000611a5f602883611f70565b91507f45524332303a207472616e7366657220616d6f756e742065786365656473206160008301527f6c6c6f77616e63650000000000000000000000000000000000000000000000006020830152604082019050919050565b6000611ac5602083611f70565b91507f4f776e61626c653a2063616c6c6572206973206e6f7420746865206f776e65726000830152602082019050919050565b6000611b05602283611f70565b91507f526f6c65733a206163636f756e7420697320746865207a65726f20616464726560008301527f73730000000000000000000000000000000000000000000000000000000000006020830152604082019050919050565b6000611b6b602583611f70565b91507f45524332303a207472616e736665722066726f6d20746865207a65726f20616460008301527f64726573730000000000000000000000000000000000000000000000000000006020830152604082019050919050565b6000611bd1602483611f70565b91507f45524332303a20617070726f76652066726f6d20746865207a65726f2061646460008301527f72657373000000000000000000000000000000000000000000000000000000006020830152604082019050919050565b6000611c37602583611f70565b91507f45524332303a2064656372656173656420616c6c6f77616e63652062656c6f7760008301527f207a65726f0000000000000000000000000000000000000000000000000000006020830152604082019050919050565b6000611c9d601f83611f70565b91507f45524332303a206d696e7420746f20746865207a65726f2061646472657373006000830152602082019050919050565b611cd981612049565b82525050565b611ce881612053565b82525050565b6000602082019050611d036000830184611757565b92915050565b6000604082019050611d1e6000830185611757565b611d2b6020830184611cd0565b9392505050565b6000602082019050611d476000830184611766565b92915050565b60006020820190508181036000830152611d678184611775565b905092915050565b60006020820190508181036000830152611d88816117ae565b9050919050565b60006020820190508181036000830152611da881611814565b9050919050565b60006020820190508181036000830152611dc881611854565b9050919050565b60006020820190508181036000830152611de8816118ba565b9050919050565b60006020820190508181036000830152611e0881611920565b9050919050565b60006020820190508181036000830152611e2881611986565b9050919050565b60006020820190508181036000830152611e48816119ec565b9050919050565b60006020820190508181036000830152611e6881611a52565b9050919050565b60006020820190508181036000830152611e8881611ab8565b9050919050565b60006020820190508181036000830152611ea881611af8565b9050919050565b60006020820190508181036000830152611ec881611b5e565b9050919050565b60006020820190508181036000830152611ee881611bc4565b9050919050565b60006020820190508181036000830152611f0881611c2a565b9050919050565b60006020820190508181036000830152611f2881611c90565b9050919050565b6000602082019050611f446000830184611cd0565b92915050565b6000602082019050611f5f6000830184611cdf565b92915050565b600081519050919050565b600082825260208201905092915050565b6000611f8c82612049565b9150611f9783612049565b9250827fffffffffffffffffffffffffffffffffffffffffffffffffffffffffffffffff03821115611fcc57611fcb6120c5565b5b828201905092915050565b6000611fe282612049565b9150611fed83612049565b92508282101561200057611fff6120c5565b5b828203905092915050565b600061201682612029565b9050919050565b60008115159050919050565b600073ffffffffffffffffffffffffffffffffffffffff82169050919050565b6000819050919050565b600060ff82169050919050565b60005b8381101561207e578082015181840152602081019050612063565b8381111561208d576000848401525b50505050565b600060028204905060018216806120ab57607f821691505b602082108114156120bf576120be6120f4565b5b50919050565b7f4e487b7100000000000000000000000000000000000000000000000000000000600052601160045260246000fd5b7f4e487b7100000000000000000000000000000000000000000000000000000000600052602260045260246000fd5b6000601f19601f8301169050919050565b61213d8161200b565b811461214857600080fd5b50565b61215481612049565b811461215f57600080fd5b5056fea2646970667358221220e3d729b452d65324ab5966ac897e388df47c413191200ae9c508e369a63d945b64736f6c634300080000336080604052600a60025534801561001557600080fd5b5060006100266100c960201b60201c565b9050806000806101000a81548173ffffffffffffffffffffffffffffffffffffffff021916908373ffffffffffffffffffffffffffffffffffffffff1602179055508073ffffffffffffffffffffffffffffffffffffffff16600073ffffffffffffffffffffffffffffffffffffffff167f8be0079c531659141344cd1fd0a4f28419497f9722a3daafe3b4186f6b6457e060405160405180910390a3506100d1565b600033905090565b6112c5806100e06000396000f3fe6080604052600436106100a75760003560e01c8063bdd4d18d11610064578063bdd4d18d14610196578063c3dc6f37146101c1578063dc3958cc146101d8578063df235fe414610201578063f2ca30131461023e578063f2fde38b14610248576100a7565b80631289cea0146100ac5780633d65de44146100d55780634f50b79d1461010057806370c9aedd1461012b578063715018a6146101545780638da5cb5b1461016b575b600080fd5b3480156100b857600080fd5b506100d360048036038101906100ce9190610d60565b610271565b005b3480156100e157600080fd5b506100ea61033a565b6040516100f79190611139565b60405180910390f35b34801561010c57600080fd5b50610115610342565b6040516101229190611139565b60405180910390f35b34801561013757600080fd5b50610152600480360381019061014d9190610d37565b610348565b005b34801561016057600080fd5b50610169610503565b005b34801561017757600080fd5b5061018061063d565b60405161018d9190610fd1565b60405180910390f35b3480156101a257600080fd5b506101ab610666565b6040516101b89190611139565b60405180910390f35b3480156101cd57600080fd5b506101d661066c565b005b3480156101e457600080fd5b506101ff60048036038101906101fa9190610d37565b61077a565b005b34801561020d57600080fd5b5061022860048036038101906102239190610d37565b6108fc565b604051610235919061103e565b60405180910390f35b610246610952565b005b34801561025457600080fd5b5061026f600480360381019061026a9190610d37565b610ad4565b005b610279610b5c565b73ffffffffffffffffffffffffffffffffffffffff1661029761063d565b73ffffffffffffffffffffffffffffffffffffffff16146102ed576040517f08c379a00000000000000000000000000000000000000000000000000000000081526004016102e490611099565b60405180910390fd5b60008111610330576040517f08c379a0000000000000000000000000000000000000000000000000000000008152600401610327906110d9565b60405180910390fd5b8060028190555050565b600047905090565b60025481565b610350610b5c565b73ffffffffffffffffffffffffffffffffffffffff1661036e61063d565b73ffffffffffffffffffffffffffffffffffffffff16146103c4576040517f08c379a00000000000000000000000000000000000000000000000000000000081526004016103bb90611099565b60405180910390fd5b60001515600160008373ffffffffffffffffffffffffffffffffffffffff1673ffffffffffffffffffffffffffffffffffffffff16815260200190815260200160002060009054906101000a900460ff16151514610457576040517f08c379a000000000000000000000000000000000000000000000000000000000815260040161044e906110b9565b60405180910390fd5b60018060008373ffffffffffffffffffffffffffffffffffffffff1673ffffffffffffffffffffffffffffffffffffffff16815260200190815260200160002060006101000a81548160ff021916908315150217905550600360008154809291906104c1906111e9565b91905055507f967489f2d72885d325edf0cf0d77e9deb9d88404866e7943bfb38cca6ee741948160006040516104f8929190610fec565b60405180910390a150565b61050b610b5c565b73ffffffffffffffffffffffffffffffffffffffff1661052961063d565b73ffffffffffffffffffffffffffffffffffffffff161461057f576040517f08c379a000000000000000000000000000000000000000000000000000000000815260040161057690611099565b60405180910390fd5b600073ffffffffffffffffffffffffffffffffffffffff1660008054906101000a900473ffffffffffffffffffffffffffffffffffffffff1673ffffffffffffffffffffffffffffffffffffffff167f8be0079c531659141344cd1fd0a4f28419497f9722a3daafe3b4186f6b6457e060405160405180910390a360008060006101000a81548173ffffffffffffffffffffffffffffffffffffffff021916908373ffffffffffffffffffffffffffffffffffffffff160217905550565b60008060009054906101000a900473ffffffffffffffffffffffffffffffffffffffff16905090565b60035481565b610674610b5c565b73ffffffffffffffffffffffffffffffffffffffff1661069261063d565b73ffffffffffffffffffffffffffffffffffffffff16146106e8576040517f08c379a00000000000000000000000000000000000000000000000000000000081526004016106df90611099565b60405180910390fd5b600047905060008111610730576040517f08c379a000000000000000000000000000000000000000000000000000000000815260040161072790611119565b60405180910390fd5b3373ffffffffffffffffffffffffffffffffffffffff166108fc829081150290604051600060405180830381858888f19350505050158015610776573d6000803e3d6000fd5b5050565b610782610b5c565b73ffffffffffffffffffffffffffffffffffffffff166107a061063d565b73ffffffffffffffffffffffffffffffffffffffff16146107f6576040517f08c379a00000000000000000000000000000000000000000000000000000000081526004016107ed90611099565b60405180910390fd5b60011515600160008373ffffffffffffffffffffffffffffffffffffffff1673ffffffffffffffffffffffffffffffffffffffff16815260200190815260200160002060009054906101000a900460ff16151514610889576040517f08c379a000000000000000000000000000000000000000000000000000000000815260040161088090611079565b60405180910390fd5b6000600160008373ffffffffffffffffffffffffffffffffffffffff1673ffffffffffffffffffffffffffffffffffffffff16815260200190815260200160002060006101000a81548160ff021916908315150217905550600360008154809291906108f4906111bf565b919050555050565b6000600160008373ffffffffffffffffffffffffffffffffffffffff1673ffffffffffffffffffffffffffffffffffffffff16815260200190815260200160002060009054906101000a900460ff169050919050565b600254341015610997576040517f08c379a000000000000000000000000000000000000000000000000000000000815260040161098e906110f9565b60405180910390fd5b60001515600160003373ffffffffffffffffffffffffffffffffffffffff1673ffffffffffffffffffffffffffffffffffffffff16815260200190815260200160002060009054906101000a900460ff16151514610a2a576040517f08c379a0000000000000000000000000000000000000000000000000000000008152600401610a21906110b9565b60405180910390fd5b60018060003373ffffffffffffffffffffffffffffffffffffffff1673ffffffffffffffffffffffffffffffffffffffff16815260200190815260200160002060006101000a81548160ff02191690831515021790555060036000815480929190610a94906111e9565b91905055507f967489f2d72885d325edf0cf0d77e9deb9d88404866e7943bfb38cca6ee741943334604051610aca929190611015565b60405180910390a1565b610adc610b5c565b73ffffffffffffffffffffffffffffffffffffffff16610afa61063d565b73ffffffffffffffffffffffffffffffffffffffff1614610b50576040517f08c379a0000000000000000000000000000000000000000000000000000000008152600401610b4790611099565b60405180910390fd5b610b5981610b64565b50565b600033905090565b610b6c610b5c565b73ffffffffffffffffffffffffffffffffffffffff16610b8a61063d565b73ffffffffffffffffffffffffffffffffffffffff1614610be0576040517f08c379a0000000000000000000000000000000000000000000000000000000008152600401610bd790611099565b60405180910390fd5b600073ffffffffffffffffffffffffffffffffffffffff168173ffffffffffffffffffffffffffffffffffffffff161415610c50576040517f08c379a0000000000000000000000000000000000000000000000000000000008152600401610c4790611059565b60405180910390fd5b8073ffffffffffffffffffffffffffffffffffffffff1660008054906101000a900473ffffffffffffffffffffffffffffffffffffffff1673ffffffffffffffffffffffffffffffffffffffff167f8be0079c531659141344cd1fd0a4f28419497f9722a3daafe3b4186f6b6457e060405160405180910390a3806000806101000a81548173ffffffffffffffffffffffffffffffffffffffff021916908373ffffffffffffffffffffffffffffffffffffffff16021790555050565b600081359050610d1c81611261565b92915050565b600081359050610d3181611278565b92915050565b600060208284031215610d4957600080fd5b6000610d5784828501610d0d565b91505092915050565b600060208284031215610d7257600080fd5b6000610d8084828501610d22565b91505092915050565b610d9281611165565b82525050565b610da181611177565b82525050565b610db0816111ad565b82525050565b6000610dc3602683611154565b91507f4f776e61626c653a206e6577206f776e657220697320746865207a65726f206160008301527f64647265737300000000000000000000000000000000000000000000000000006020830152604082019050919050565b6000610e29600c83611154565b91507f4e6f742061206d656d62657200000000000000000000000000000000000000006000830152602082019050919050565b6000610e69602083611154565b91507f4f776e61626c653a2063616c6c6572206973206e6f7420746865206f776e65726000830152602082019050919050565b6000610ea9600e83611154565b91507f416c7265616479206d656d6265720000000000000000000000000000000000006000830152602082019050919050565b6000610ee9601f83611154565b91507f796f752063616e6e6f742073657420746865206b796320666f722066726565006000830152602082019050919050565b6000610f29602683611154565b91507f596f75206e65656420746f2073656e64206d6f7265206d6f6e657920746f206260008301527f7579206b796300000000000000000000000000000000000000000000000000006020830152604082019050919050565b6000610f8f601683611154565b91507f6e6f7468696e6720746f2077697468647261772e2e2e000000000000000000006000830152602082019050919050565b610fcb816111a3565b82525050565b6000602082019050610fe66000830184610d89565b92915050565b60006040820190506110016000830185610d89565b61100e6020830184610da7565b9392505050565b600060408201905061102a6000830185610d89565b6110376020830184610fc2565b9392505050565b60006020820190506110536000830184610d98565b92915050565b6000602082019050818103600083015261107281610db6565b9050919050565b6000602082019050818103600083015261109281610e1c565b9050919050565b600060208201905081810360008301526110b281610e5c565b9050919050565b600060208201905081810360008301526110d281610e9c565b9050919050565b600060208201905081810360008301526110f281610edc565b9050919050565b6000602082019050818103600083015261111281610f1c565b9050919050565b6000602082019050818103600083015261113281610f82565b9050919050565b600060208201905061114e6000830184610fc2565b92915050565b600082825260208201905092915050565b600061117082611183565b9050919050565b60008115159050919050565b600073ffffffffffffffffffffffffffffffffffffffff82169050919050565b6000819050919050565b60006111b8826111a3565b9050919050565b60006111ca826111a3565b915060008214156111de576111dd611232565b5b600182039050919050565b60006111f4826111a3565b91507fffffffffffffffffffffffffffffffffffffffffffffffffffffffffffffffff82141561122757611226611232565b5b600182019050919050565b7f4e487b7100000000000000000000000000000000000000000000000000000000600052601160045260246000fd5b61126a81611165565b811461127557600080fd5b50565b611281816111a3565b811461128c57600080fd5b5056fea2646970667358221220c89e8be1e9e10381f447806a6262a9a428a91c5d26d37d33c2f1f41f83c4e87e64736f6c6343000800003360806040523480156200001157600080fd5b50604051620011cb380380620011cb8339818101604052810190620000379190620002a1565b83838360016000819055506000831162000088576040517f08c379a00000000000000000000000000000000000000000000000000000000081526004016200007f9062000441565b60405180910390fd5b600073ffffffffffffffffffffffffffffffffffffffff168273ffffffffffffffffffffffffffffffffffffffff161415620000fb576040517f08c379a0000000000000000000000000000000000000000000000000000000008152600401620000f29062000463565b60405180910390fd5b600073ffffffffffffffffffffffffffffffffffffffff168173ffffffffffffffffffffffffffffffffffffffff1614156200016e576040517f08c379a000000000000000000000000000000000000000000000000000000000815260040162000165906200041f565b60405180910390fd5b8260038190555081600260006101000a81548173ffffffffffffffffffffffffffffffffffffffff021916908373ffffffffffffffffffffffffffffffffffffffff16021790555080600160006101000a81548173ffffffffffffffffffffffffffffffffffffffff021916908373ffffffffffffffffffffffffffffffffffffffff16021790555050505080600560006101000a81548173ffffffffffffffffffffffffffffffffffffffff021916908373ffffffffffffffffffffffffffffffffffffffff1602179055505050505062000578565b600081519050620002568162000510565b92915050565b6000815190506200026d816200052a565b92915050565b600081519050620002848162000544565b92915050565b6000815190506200029b816200055e565b92915050565b60008060008060808587031215620002b857600080fd5b6000620002c8878288016200028a565b9450506020620002db8782880162000245565b9350506040620002ee878288016200025c565b9250506060620003018782880162000273565b91505092959194509250565b60006200031c60248362000485565b91507f43726f776473616c653a20746f6b656e20697320746865207a65726f2061646460008301527f72657373000000000000000000000000000000000000000000000000000000006020830152604082019050919050565b60006200038460148362000485565b91507f43726f776473616c653a207261746520697320300000000000000000000000006000830152602082019050919050565b6000620003c660258362000485565b91507f43726f776473616c653a2077616c6c657420697320746865207a65726f20616460008301527f64726573730000000000000000000000000000000000000000000000000000006020830152604082019050919050565b600060208201905081810360008301526200043a816200030d565b9050919050565b600060208201905081810360008301526200045c8162000375565b9050919050565b600060208201905081810360008301526200047e81620003b7565b9050919050565b600082825260208201905092915050565b6000620004a382620004e6565b9050919050565b6000620004b782620004e6565b9050919050565b6000620004cb8262000496565b9050919050565b6000620004df8262000496565b9050919050565b600073ffffffffffffffffffffffffffffffffffffffff82169050919050565b6000819050919050565b6200051b81620004aa565b81146200052757600080fd5b50565b6200053581620004be565b81146200054157600080fd5b50565b6200054f81620004d2565b81146200055b57600080fd5b50565b620005698162000506565b81146200057557600080fd5b50565b610c4380620005886000396000f3fe60806040526004361061004e5760003560e01c80632c4e722e1461006a5780634042b66f14610095578063521eb273146100c0578063ec8ac4d8146100eb578063fc0c546a1461010757610065565b366100655761006361005e610132565b61013a565b005b600080fd5b34801561007657600080fd5b5061007f610260565b60405161008c9190610a27565b60405180910390f35b3480156100a157600080fd5b506100aa61026a565b6040516100b79190610a27565b60405180910390f35b3480156100cc57600080fd5b506100d5610274565b6040516100e29190610908565b60405180910390f35b61010560048036038101906101009190610693565b61013a565b005b34801561011357600080fd5b5061011c61029e565b604051610129919061094c565b60405180910390f35b600033905090565b60026000541415610180576040517f08c379a0000000000000000000000000000000000000000000000000000000008152600401610177906109e7565b60405180910390fd5b6002600081905550600034905061019782826102c8565b60006101a28261040a565b90506101b98260045461042d90919063ffffffff16565b6004819055506101c98382610443565b8273ffffffffffffffffffffffffffffffffffffffff166101e8610132565b73ffffffffffffffffffffffffffffffffffffffff167f6faf93231a456e552dbc9961f58d9713ee4f2e69d15f1975b050ef0911053a7b848460405161022f929190610a42565b60405180910390a36102418383610451565b610249610455565b61025383836104c0565b5050600160008190555050565b6000600354905090565b6000600454905090565b6000600260009054906101000a900473ffffffffffffffffffffffffffffffffffffffff16905090565b6000600160009054906101000a900473ffffffffffffffffffffffffffffffffffffffff16905090565b6102d282826104c4565b600560009054906101000a900473ffffffffffffffffffffffffffffffffffffffff1673ffffffffffffffffffffffffffffffffffffffff1663df235fe4336040518263ffffffff1660e01b815260040161032d91906108ed565b60206040518083038186803b15801561034557600080fd5b505afa158015610359573d6000803e3d6000fd5b505050506040513d601f19601f8201168201806040525081019061037d91906106bc565b6103bc576040517f08c379a00000000000000000000000000000000000000000000000000000000081526004016103b390610967565b60405180910390fd5b6103c4610260565b811015610406576040517f08c379a00000000000000000000000000000000000000000000000000000000081526004016103fd906109c7565b60405180910390fd5b5050565b6000610426610417610260565b8361057c90919063ffffffff16565b9050919050565b6000818361043b9190610a7c565b905092915050565b61044d8282610592565b5050565b5050565b600260009054906101000a900473ffffffffffffffffffffffffffffffffffffffff1673ffffffffffffffffffffffffffffffffffffffff166108fc349081150290604051600060405180830381858888f193505050501580156104bd573d6000803e3d6000fd5b50565b5050565b600073ffffffffffffffffffffffffffffffffffffffff168273ffffffffffffffffffffffffffffffffffffffff161415610534576040517f08c379a000000000000000000000000000000000000000000000000000000000815260040161052b90610987565b60405180910390fd5b6000811415610578576040517f08c379a000000000000000000000000000000000000000000000000000000000815260040161056f90610a07565b60405180910390fd5b5050565b6000818361058a9190610ad2565b905092915050565b61059a61029e565b73ffffffffffffffffffffffffffffffffffffffff166340c10f1983836040518363ffffffff1660e01b81526004016105d4929190610923565b602060405180830381600087803b1580156105ee57600080fd5b505af1158015610602573d6000803e3d6000fd5b505050506040513d601f19601f8201168201806040525081019061062691906106bc565b610665576040517f08c379a000000000000000000000000000000000000000000000000000000000815260040161065c906109a7565b60405180910390fd5b5050565b60008135905061067881610bdf565b92915050565b60008151905061068d81610bf6565b92915050565b6000602082840312156106a557600080fd5b60006106b384828501610669565b91505092915050565b6000602082840312156106ce57600080fd5b60006106dc8482850161067e565b91505092915050565b6106ee81610b15565b82525050565b6106fd81610b03565b82525050565b61070c81610b5d565b82525050565b600061071f602783610a6b565b91507f4b5943206e6f7420636f6d706c657465642c207075726368617365206e6f742060008301527f616c6c6f776564000000000000000000000000000000000000000000000000006020830152604082019050919050565b6000610785602a83610a6b565b91507f43726f776473616c653a2062656e656669636961727920697320746865207a6560008301527f726f2061646472657373000000000000000000000000000000000000000000006020830152604082019050919050565b60006107eb601f83610a6b565b91507f4d696e74656443726f776473616c653a206d696e74696e67206661696c6564006000830152602082019050919050565b600061082b601c83610a6b565b91507f4e6f7420656e6f756768206d6f6e657920746f207075726368617365000000006000830152602082019050919050565b600061086b601f83610a6b565b91507f5265656e7472616e637947756172643a207265656e7472616e742063616c6c006000830152602082019050919050565b60006108ab601983610a6b565b91507f43726f776473616c653a20776569416d6f756e742069732030000000000000006000830152602082019050919050565b6108e781610b53565b82525050565b600060208201905061090260008301846106f4565b92915050565b600060208201905061091d60008301846106e5565b92915050565b600060408201905061093860008301856106f4565b61094560208301846108de565b9392505050565b60006020820190506109616000830184610703565b92915050565b6000602082019050818103600083015261098081610712565b9050919050565b600060208201905081810360008301526109a081610778565b9050919050565b600060208201905081810360008301526109c0816107de565b9050919050565b600060208201905081810360008301526109e08161081e565b9050919050565b60006020820190508181036000830152610a008161085e565b9050919050565b60006020820190508181036000830152610a208161089e565b9050919050565b6000602082019050610a3c60008301846108de565b92915050565b6000604082019050610a5760008301856108de565b610a6460208301846108de565b9392505050565b600082825260208201905092915050565b6000610a8782610b53565b9150610a9283610b53565b9250827fffffffffffffffffffffffffffffffffffffffffffffffffffffffffffffffff03821115610ac757610ac6610b81565b5b828201905092915050565b6000610add82610b53565b9150610ae883610b53565b925082610af857610af7610bb0565b5b828204905092915050565b6000610b0e82610b33565b9050919050565b6000610b2082610b33565b9050919050565b60008115159050919050565b600073ffffffffffffffffffffffffffffffffffffffff82169050919050565b6000819050919050565b6000610b6882610b6f565b9050919050565b6000610b7a82610b33565b9050919050565b7f4e487b7100000000000000000000000000000000000000000000000000000000600052601160045260246000fd5b7f4e487b7100000000000000000000000000000000000000000000000000000000600052601260045260246000fd5b610be881610b03565b8114610bf357600080fd5b50565b610bff81610b27565b8114610c0a57600080fd5b5056fea26469706673582212202aa9900050aac8c1f99ed744a65c78fa8803b5484b0727f08ee438e7c1dc271364736f6c63430008000033a2646970667358221220f9c6d2b6067d46f733f7d64034deaabd6824ecb8bd83ecdac3f3578ad8aa482164736f6c63430008000033",
  "devdoc": {
    "kind": "dev",
    "methods": {},
    "version": 1
  },
  "userdoc": {
    "kind": "user",
    "methods": {},
    "version": 1
  },
  "storageLayout": {
    "storage": [
      {
        "astId": 2305,
        "contract": "contracts/UserTokens.sol:UserTokens",
        "label": "userTokenAddress",
        "offset": 0,
        "slot": "0",
        "type": "t_mapping(t_address,t_array(t_address)dyn_storage)"
      },
      {
        "astId": 2309,
        "contract": "contracts/UserTokens.sol:UserTokens",
        "label": "kycContractAddress",
        "offset": 0,
        "slot": "1",
        "type": "t_mapping(t_address,t_address)"
      },
      {
        "astId": 2313,
        "contract": "contracts/UserTokens.sol:UserTokens",
        "label": "myTokenSaleAddress",
        "offset": 0,
        "slot": "2",
        "type": "t_mapping(t_address,t_address)"
      },
      {
        "astId": 2317,
        "contract": "contracts/UserTokens.sol:UserTokens",
        "label": "userTokensCount",
        "offset": 0,
        "slot": "3",
        "type": "t_mapping(t_address,t_uint256)"
      }
    ],
    "types": {
      "t_address": {
        "encoding": "inplace",
        "label": "address",
        "numberOfBytes": "20"
      },
      "t_array(t_address)dyn_storage": {
        "base": "t_address",
        "encoding": "dynamic_array",
        "label": "address[]",
        "numberOfBytes": "32"
      },
      "t_mapping(t_address,t_address)": {
        "encoding": "mapping",
        "key": "t_address",
        "label": "mapping(address => address)",
        "numberOfBytes": "32",
        "value": "t_address"
      },
      "t_mapping(t_address,t_array(t_address)dyn_storage)": {
        "encoding": "mapping",
        "key": "t_address",
        "label": "mapping(address => address[])",
        "numberOfBytes": "32",
        "value": "t_array(t_address)dyn_storage"
      },
      "t_mapping(t_address,t_uint256)": {
        "encoding": "mapping",
        "key": "t_address",
        "label": "mapping(address => uint256)",
        "numberOfBytes": "32",
        "value": "t_uint256"
      },
      "t_uint256": {
        "encoding": "inplace",
        "label": "uint256",
        "numberOfBytes": "32"
      }
    }
  }
}