{
  "address": "0x34dC45C9BD145A56d5cd2ac3Fb0C27f92E010926",
  "abi": [
    {
      "anonymous": false,
      "inputs": [
        {
          "indexed": false,
          "internalType": "address",
          "name": "from",
          "type": "address"
        },
        {
          "indexed": false,
          "internalType": "uint256",
          "name": "value",
          "type": "uint256"
        }
      ],
      "name": "KycPurchased",
      "type": "event"
    },
    {
      "anonymous": false,
      "inputs": [
        {
          "indexed": true,
          "internalType": "address",
          "name": "previousOwner",
          "type": "address"
        },
        {
          "indexed": true,
          "internalType": "address",
          "name": "newOwner",
          "type": "address"
        }
      ],
      "name": "OwnershipTransferred",
      "type": "event"
    },
    {
      "inputs": [],
      "name": "buyKyc",
      "outputs": [],
      "stateMutability": "payable",
      "type": "function"
    },
    {
      "inputs": [
        {
          "internalType": "address",
          "name": "_addr",
          "type": "address"
        }
      ],
      "name": "kycCompleted",
      "outputs": [
        {
          "internalType": "bool",
          "name": "",
          "type": "bool"
        }
      ],
      "stateMutability": "view",
      "type": "function"
    },
    {
      "inputs": [],
      "name": "kycPrice",
      "outputs": [
        {
          "internalType": "uint256",
          "name": "",
          "type": "uint256"
        }
      ],
      "stateMutability": "view",
      "type": "function"
    },
    {
      "inputs": [],
      "name": "owner",
      "outputs": [
        {
          "internalType": "address",
          "name": "",
          "type": "address"
        }
      ],
      "stateMutability": "view",
      "type": "function"
    },
    {
      "inputs": [],
      "name": "renounceOwnership",
      "outputs": [],
      "stateMutability": "nonpayable",
      "type": "function"
    },
    {
      "inputs": [
        {
          "internalType": "address",
          "name": "_addr",
          "type": "address"
        }
      ],
      "name": "setKycCompleted",
      "outputs": [],
      "stateMutability": "nonpayable",
      "type": "function"
    },
    {
      "inputs": [
        {
          "internalType": "uint256",
          "name": "_amountInWei",
          "type": "uint256"
        }
      ],
      "name": "setKycPrice",
      "outputs": [],
      "stateMutability": "nonpayable",
      "type": "function"
    },
    {
      "inputs": [
        {
          "internalType": "address",
          "name": "_addr",
          "type": "address"
        }
      ],
      "name": "setKycRevoked",
      "outputs": [],
      "stateMutability": "nonpayable",
      "type": "function"
    },
    {
      "inputs": [
        {
          "internalType": "address",
          "name": "newOwner",
          "type": "address"
        }
      ],
      "name": "transferOwnership",
      "outputs": [],
      "stateMutability": "nonpayable",
      "type": "function"
    },
    {
      "inputs": [],
      "name": "withdrawKyc",
      "outputs": [],
      "stateMutability": "nonpayable",
      "type": "function"
    }
  ],
  "transactionHash": "0xf98aabdeab1a7942347d7c1514f3d437ab48cfe41181a1681d9f3d07dbb7d00f",
  "args": [],
  "solcInputHash": "d9a7f4546afe122fb3a2a49667d42337",
  "bytecode": "0x6080604052600a60025534801561001557600080fd5b5060006100266100c960201b60201c565b9050806000806101000a81548173ffffffffffffffffffffffffffffffffffffffff021916908373ffffffffffffffffffffffffffffffffffffffff1602179055508073ffffffffffffffffffffffffffffffffffffffff16600073ffffffffffffffffffffffffffffffffffffffff167f8be0079c531659141344cd1fd0a4f28419497f9722a3daafe3b4186f6b6457e060405160405180910390a3506100d1565b600033905090565b610ddc806100e06000396000f3fe6080604052600436106100915760003560e01c8063c3dc6f3711610059578063c3dc6f3714610155578063dc3958cc1461016c578063df235fe414610195578063f2ca3013146101d2578063f2fde38b146101dc57610091565b80631289cea0146100965780634f50b79d146100bf57806370c9aedd146100ea578063715018a6146101135780638da5cb5b1461012a575b600080fd5b3480156100a257600080fd5b506100bd60048036038101906100b89190610a23565b610205565b005b3480156100cb57600080fd5b506100d46102ce565b6040516100e19190610d04565b60405180910390f35b3480156100f657600080fd5b50610111600480360381019061010c91906109fa565b6102d4565b005b34801561011f57600080fd5b506101286103aa565b005b34801561013657600080fd5b5061013f6104e4565b60405161014c9190610c05565b60405180910390f35b34801561016157600080fd5b5061016a61050d565b005b34801561017857600080fd5b50610193600480360381019061018e91906109fa565b61061b565b005b3480156101a157600080fd5b506101bc60048036038101906101b791906109fa565b6106f2565b6040516101c99190610c49565b60405180910390f35b6101da610748565b005b3480156101e857600080fd5b5061020360048036038101906101fe91906109fa565b61081f565b005b61020d6109c8565b73ffffffffffffffffffffffffffffffffffffffff1661022b6104e4565b73ffffffffffffffffffffffffffffffffffffffff1614610281576040517f08c379a000000000000000000000000000000000000000000000000000000000815260040161027890610c84565b60405180910390fd5b600081116102c4576040517f08c379a00000000000000000000000000000000000000000000000000000000081526004016102bb90610ca4565b60405180910390fd5b8060028190555050565b60025481565b6102dc6109c8565b73ffffffffffffffffffffffffffffffffffffffff166102fa6104e4565b73ffffffffffffffffffffffffffffffffffffffff1614610350576040517f08c379a000000000000000000000000000000000000000000000000000000000815260040161034790610c84565b60405180910390fd5b60018060008373ffffffffffffffffffffffffffffffffffffffff1673ffffffffffffffffffffffffffffffffffffffff16815260200190815260200160002060006101000a81548160ff02191690831515021790555050565b6103b26109c8565b73ffffffffffffffffffffffffffffffffffffffff166103d06104e4565b73ffffffffffffffffffffffffffffffffffffffff1614610426576040517f08c379a000000000000000000000000000000000000000000000000000000000815260040161041d90610c84565b60405180910390fd5b600073ffffffffffffffffffffffffffffffffffffffff1660008054906101000a900473ffffffffffffffffffffffffffffffffffffffff1673ffffffffffffffffffffffffffffffffffffffff167f8be0079c531659141344cd1fd0a4f28419497f9722a3daafe3b4186f6b6457e060405160405180910390a360008060006101000a81548173ffffffffffffffffffffffffffffffffffffffff021916908373ffffffffffffffffffffffffffffffffffffffff160217905550565b60008060009054906101000a900473ffffffffffffffffffffffffffffffffffffffff16905090565b6105156109c8565b73ffffffffffffffffffffffffffffffffffffffff166105336104e4565b73ffffffffffffffffffffffffffffffffffffffff1614610589576040517f08c379a000000000000000000000000000000000000000000000000000000000815260040161058090610c84565b60405180910390fd5b6000479050600081116105d1576040517f08c379a00000000000000000000000000000000000000000000000000000000081526004016105c890610ce4565b60405180910390fd5b3373ffffffffffffffffffffffffffffffffffffffff166108fc829081150290604051600060405180830381858888f19350505050158015610617573d6000803e3d6000fd5b5050565b6106236109c8565b73ffffffffffffffffffffffffffffffffffffffff166106416104e4565b73ffffffffffffffffffffffffffffffffffffffff1614610697576040517f08c379a000000000000000000000000000000000000000000000000000000000815260040161068e90610c84565b60405180910390fd5b6000600160008373ffffffffffffffffffffffffffffffffffffffff1673ffffffffffffffffffffffffffffffffffffffff16815260200190815260200160002060006101000a81548160ff02191690831515021790555050565b6000600160008373ffffffffffffffffffffffffffffffffffffffff1673ffffffffffffffffffffffffffffffffffffffff16815260200190815260200160002060009054906101000a900460ff169050919050565b60025434101561078d576040517f08c379a000000000000000000000000000000000000000000000000000000000815260040161078490610cc4565b60405180910390fd5b60018060003373ffffffffffffffffffffffffffffffffffffffff1673ffffffffffffffffffffffffffffffffffffffff16815260200190815260200160002060006101000a81548160ff0219169083151502179055507f967489f2d72885d325edf0cf0d77e9deb9d88404866e7943bfb38cca6ee741943334604051610815929190610c20565b60405180910390a1565b6108276109c8565b73ffffffffffffffffffffffffffffffffffffffff166108456104e4565b73ffffffffffffffffffffffffffffffffffffffff161461089b576040517f08c379a000000000000000000000000000000000000000000000000000000000815260040161089290610c84565b60405180910390fd5b600073ffffffffffffffffffffffffffffffffffffffff168173ffffffffffffffffffffffffffffffffffffffff16141561090b576040517f08c379a000000000000000000000000000000000000000000000000000000000815260040161090290610c64565b60405180910390fd5b8073ffffffffffffffffffffffffffffffffffffffff1660008054906101000a900473ffffffffffffffffffffffffffffffffffffffff1673ffffffffffffffffffffffffffffffffffffffff167f8be0079c531659141344cd1fd0a4f28419497f9722a3daafe3b4186f6b6457e060405160405180910390a3806000806101000a81548173ffffffffffffffffffffffffffffffffffffffff021916908373ffffffffffffffffffffffffffffffffffffffff16021790555050565b600033905090565b6000813590506109df81610d78565b92915050565b6000813590506109f481610d8f565b92915050565b600060208284031215610a0c57600080fd5b6000610a1a848285016109d0565b91505092915050565b600060208284031215610a3557600080fd5b6000610a43848285016109e5565b91505092915050565b610a5581610d30565b82525050565b610a6481610d42565b82525050565b6000610a77602683610d1f565b91507f4f776e61626c653a206e6577206f776e657220697320746865207a65726f206160008301527f64647265737300000000000000000000000000000000000000000000000000006020830152604082019050919050565b6000610add602083610d1f565b91507f4f776e61626c653a2063616c6c6572206973206e6f7420746865206f776e65726000830152602082019050919050565b6000610b1d601f83610d1f565b91507f796f752063616e6e6f742073657420746865206b796320666f722066726565006000830152602082019050919050565b6000610b5d602683610d1f565b91507f596f75206e65656420746f2073656e64206d6f7265206d6f6e657920746f206260008301527f7579206b796300000000000000000000000000000000000000000000000000006020830152604082019050919050565b6000610bc3601683610d1f565b91507f6e6f7468696e6720746f2077697468647261772e2e2e000000000000000000006000830152602082019050919050565b610bff81610d6e565b82525050565b6000602082019050610c1a6000830184610a4c565b92915050565b6000604082019050610c356000830185610a4c565b610c426020830184610bf6565b9392505050565b6000602082019050610c5e6000830184610a5b565b92915050565b60006020820190508181036000830152610c7d81610a6a565b9050919050565b60006020820190508181036000830152610c9d81610ad0565b9050919050565b60006020820190508181036000830152610cbd81610b10565b9050919050565b60006020820190508181036000830152610cdd81610b50565b9050919050565b60006020820190508181036000830152610cfd81610bb6565b9050919050565b6000602082019050610d196000830184610bf6565b92915050565b600082825260208201905092915050565b6000610d3b82610d4e565b9050919050565b60008115159050919050565b600073ffffffffffffffffffffffffffffffffffffffff82169050919050565b6000819050919050565b610d8181610d30565b8114610d8c57600080fd5b50565b610d9881610d6e565b8114610da357600080fd5b5056fea2646970667358221220bc72354481255706bc09b2f3a5f1e776e5cc64649f78195d304019e8dd0a1ad564736f6c63430008000033",
  "devdoc": {
    "kind": "dev",
    "methods": {
      "owner()": {
        "details": "Returns the address of the current owner."
      },
      "renounceOwnership()": {
        "details": "Leaves the contract without owner. It will not be possible to call `onlyOwner` functions anymore. Can only be called by the current owner. NOTE: Renouncing ownership will leave the contract without an owner, thereby removing any functionality that is only available to the owner."
      },
      "transferOwnership(address)": {
        "details": "Transfers ownership of the contract to a new account (`newOwner`). Can only be called by the current owner."
      }
    },
    "version": 1
  },
  "userdoc": {
    "kind": "user",
    "methods": {},
    "version": 1
  },
  "storageLayout": {
    "storage": [
      {
        "astId": 7,
        "contract": "contracts/KycContract.sol:KycContract",
        "label": "_owner",
        "offset": 0,
        "slot": "0",
        "type": "t_address"
      },
      {
        "astId": 1924,
        "contract": "contracts/KycContract.sol:KycContract",
        "label": "allowed",
        "offset": 0,
        "slot": "1",
        "type": "t_mapping(t_address,t_bool)"
      },
      {
        "astId": 1927,
        "contract": "contracts/KycContract.sol:KycContract",
        "label": "kycPrice",
        "offset": 0,
        "slot": "2",
        "type": "t_uint256"
      }
    ],
    "types": {
      "t_address": {
        "encoding": "inplace",
        "label": "address",
        "numberOfBytes": "20"
      },
      "t_bool": {
        "encoding": "inplace",
        "label": "bool",
        "numberOfBytes": "1"
      },
      "t_mapping(t_address,t_bool)": {
        "encoding": "mapping",
        "key": "t_address",
        "label": "mapping(address => bool)",
        "numberOfBytes": "32",
        "value": "t_bool"
      },
      "t_uint256": {
        "encoding": "inplace",
        "label": "uint256",
        "numberOfBytes": "32"
      }
    }
  }
}